{
  "_format": "hh-sol-artifact-1",
  "contractName": "MPTY",
  "sourceName": "contracts/MPTY.sol",
  "abi": [
    {
      "inputs": [],
      "stateMutability": "nonpayable",
      "type": "constructor"
    },
    {
      "anonymous": false,
      "inputs": [
        {
          "indexed": true,
          "internalType": "address",
          "name": "owner",
          "type": "address"
        },
        {
          "indexed": true,
          "internalType": "address",
          "name": "approved",
          "type": "address"
        },
        {
          "indexed": true,
          "internalType": "uint256",
          "name": "tokenId",
          "type": "uint256"
        }
      ],
      "name": "Approval",
      "type": "event"
    },
    {
      "anonymous": false,
      "inputs": [
        {
          "indexed": true,
          "internalType": "address",
          "name": "owner",
          "type": "address"
        },
        {
          "indexed": true,
          "internalType": "address",
          "name": "operator",
          "type": "address"
        },
        {
          "indexed": false,
          "internalType": "bool",
          "name": "approved",
          "type": "bool"
        }
      ],
      "name": "ApprovalForAll",
      "type": "event"
    },
    {
      "anonymous": false,
      "inputs": [
        {
          "indexed": true,
          "internalType": "address",
          "name": "previousOwner",
          "type": "address"
        },
        {
          "indexed": true,
          "internalType": "address",
          "name": "newOwner",
          "type": "address"
        }
      ],
      "name": "OwnershipTransferred",
      "type": "event"
    },
    {
      "anonymous": false,
      "inputs": [
        {
          "indexed": true,
          "internalType": "address",
          "name": "from",
          "type": "address"
        },
        {
          "indexed": true,
          "internalType": "address",
          "name": "to",
          "type": "address"
        },
        {
          "indexed": true,
          "internalType": "uint256",
          "name": "tokenId",
          "type": "uint256"
        }
      ],
      "name": "Transfer",
      "type": "event"
    },
    {
      "inputs": [
        {
          "internalType": "address",
          "name": "to",
          "type": "address"
        },
        {
          "internalType": "uint256",
          "name": "tokenId",
          "type": "uint256"
        }
      ],
      "name": "approve",
      "outputs": [],
      "stateMutability": "nonpayable",
      "type": "function"
    },
    {
      "inputs": [
        {
          "internalType": "address",
          "name": "owner",
          "type": "address"
        }
      ],
      "name": "balanceOf",
      "outputs": [
        {
          "internalType": "uint256",
          "name": "",
          "type": "uint256"
        }
      ],
      "stateMutability": "view",
      "type": "function"
    },
    {
      "inputs": [],
      "name": "baseURI",
      "outputs": [
        {
          "internalType": "string",
          "name": "",
          "type": "string"
        }
      ],
      "stateMutability": "view",
      "type": "function"
    },
    {
      "inputs": [
        {
          "internalType": "uint256",
          "name": "tokenId",
          "type": "uint256"
        }
      ],
      "name": "getApproved",
      "outputs": [
        {
          "internalType": "address",
          "name": "",
          "type": "address"
        }
      ],
      "stateMutability": "view",
      "type": "function"
    },
    {
      "inputs": [
        {
          "internalType": "address",
          "name": "owner",
          "type": "address"
        },
        {
          "internalType": "address",
          "name": "operator",
          "type": "address"
        }
      ],
      "name": "isApprovedForAll",
      "outputs": [
        {
          "internalType": "bool",
          "name": "",
          "type": "bool"
        }
      ],
      "stateMutability": "view",
      "type": "function"
    },
    {
      "inputs": [
        {
          "internalType": "address",
          "name": "to",
          "type": "address"
        },
        {
          "internalType": "string",
          "name": "tokenURI",
          "type": "string"
        }
      ],
      "name": "mintItem",
      "outputs": [
        {
          "internalType": "uint256",
          "name": "",
          "type": "uint256"
        }
      ],
      "stateMutability": "nonpayable",
      "type": "function"
    },
    {
      "inputs": [],
      "name": "name",
      "outputs": [
        {
          "internalType": "string",
          "name": "",
          "type": "string"
        }
      ],
      "stateMutability": "view",
      "type": "function"
    },
    {
      "inputs": [],
      "name": "owner",
      "outputs": [
        {
          "internalType": "address",
          "name": "",
          "type": "address"
        }
      ],
      "stateMutability": "view",
      "type": "function"
    },
    {
      "inputs": [
        {
          "internalType": "uint256",
          "name": "tokenId",
          "type": "uint256"
        }
      ],
      "name": "ownerOf",
      "outputs": [
        {
          "internalType": "address",
          "name": "",
          "type": "address"
        }
      ],
      "stateMutability": "view",
      "type": "function"
    },
    {
      "inputs": [],
      "name": "renounceOwnership",
      "outputs": [],
      "stateMutability": "nonpayable",
      "type": "function"
    },
    {
      "inputs": [
        {
          "internalType": "address",
          "name": "from",
          "type": "address"
        },
        {
          "internalType": "address",
          "name": "to",
          "type": "address"
        },
        {
          "internalType": "uint256",
          "name": "tokenId",
          "type": "uint256"
        }
      ],
      "name": "safeTransferFrom",
      "outputs": [],
      "stateMutability": "nonpayable",
      "type": "function"
    },
    {
      "inputs": [
        {
          "internalType": "address",
          "name": "from",
          "type": "address"
        },
        {
          "internalType": "address",
          "name": "to",
          "type": "address"
        },
        {
          "internalType": "uint256",
          "name": "tokenId",
          "type": "uint256"
        },
        {
          "internalType": "bytes",
          "name": "_data",
          "type": "bytes"
        }
      ],
      "name": "safeTransferFrom",
      "outputs": [],
      "stateMutability": "nonpayable",
      "type": "function"
    },
    {
      "inputs": [
        {
          "internalType": "address",
          "name": "operator",
          "type": "address"
        },
        {
          "internalType": "bool",
          "name": "approved",
          "type": "bool"
        }
      ],
      "name": "setApprovalForAll",
      "outputs": [],
      "stateMutability": "nonpayable",
      "type": "function"
    },
    {
      "inputs": [
        {
          "internalType": "bytes4",
          "name": "interfaceId",
          "type": "bytes4"
        }
      ],
      "name": "supportsInterface",
      "outputs": [
        {
          "internalType": "bool",
          "name": "",
          "type": "bool"
        }
      ],
      "stateMutability": "view",
      "type": "function"
    },
    {
      "inputs": [],
      "name": "symbol",
      "outputs": [
        {
          "internalType": "string",
          "name": "",
          "type": "string"
        }
      ],
      "stateMutability": "view",
      "type": "function"
    },
    {
      "inputs": [
        {
          "internalType": "uint256",
          "name": "index",
          "type": "uint256"
        }
      ],
      "name": "tokenByIndex",
      "outputs": [
        {
          "internalType": "uint256",
          "name": "",
          "type": "uint256"
        }
      ],
      "stateMutability": "view",
      "type": "function"
    },
    {
      "inputs": [
        {
          "internalType": "address",
          "name": "owner",
          "type": "address"
        },
        {
          "internalType": "uint256",
          "name": "index",
          "type": "uint256"
        }
      ],
      "name": "tokenOfOwnerByIndex",
      "outputs": [
        {
          "internalType": "uint256",
          "name": "",
          "type": "uint256"
        }
      ],
      "stateMutability": "view",
      "type": "function"
    },
    {
      "inputs": [
        {
          "internalType": "uint256",
          "name": "tokenId",
          "type": "uint256"
        }
      ],
      "name": "tokenURI",
      "outputs": [
        {
          "internalType": "string",
          "name": "",
          "type": "string"
        }
      ],
      "stateMutability": "view",
      "type": "function"
    },
    {
      "inputs": [],
      "name": "totalSupply",
      "outputs": [
        {
          "internalType": "uint256",
          "name": "",
          "type": "uint256"
        }
      ],
      "stateMutability": "view",
      "type": "function"
    },
    {
      "inputs": [
        {
          "internalType": "address",
          "name": "from",
          "type": "address"
        },
        {
          "internalType": "address",
          "name": "to",
          "type": "address"
        },
        {
          "internalType": "uint256",
          "name": "tokenId",
          "type": "uint256"
        }
      ],
      "name": "transferFrom",
      "outputs": [],
      "stateMutability": "nonpayable",
      "type": "function"
    },
    {
      "inputs": [
        {
          "internalType": "address",
          "name": "newOwner",
          "type": "address"
        }
      ],
      "name": "transferOwnership",
      "outputs": [],
      "stateMutability": "nonpayable",
      "type": "function"
    },
    {
      "inputs": [
        {
          "internalType": "uint256",
          "name": "tokenId",
          "type": "uint256"
        },
        {
          "internalType": "string",
          "name": "tokenURI",
          "type": "string"
        }
      ],
      "name": "unlockItem",
      "outputs": [
        {
          "internalType": "uint256",
          "name": "",
          "type": "uint256"
        }
      ],
      "stateMutability": "nonpayable",
      "type": "function"
    }
  ],
  "bytecode": "0x60806040523480156200001157600080fd5b506040805180820182526004808252634d50545960e01b6020808401829052845180860190955291845290830152906200005b6301ffc9a760e01b6001600160e01b036200018c16565b8151620000709060069060208501906200022f565b508051620000869060079060208401906200022f565b50620000a26380ac58cd60e01b6001600160e01b036200018c16565b620000bd635b5e139f60e01b6001600160e01b036200018c16565b620000d863780e9d6360e01b6001600160e01b036200018c16565b5060009050620000f06001600160e01b036200021116565b600a80546001600160a01b0319166001600160a01b038316908117909155604051919250906000907f8be0079c531659141344cd1fd0a4f28419497f9722a3daafe3b4186f6b6457e0908290a35060408051808201909152601581527f68747470733a2f2f697066732e696f2f697066732f0000000000000000000000602082015262000186906001600160e01b036200021616565b620002d1565b6001600160e01b03198082161415620001ec576040805162461bcd60e51b815260206004820152601c60248201527f4552433136353a20696e76616c696420696e7465726661636520696400000000604482015290519081900360640190fd5b6001600160e01b0319166000908152602081905260409020805460ff19166001179055565b335b90565b80516200022b9060099060208401906200022f565b5050565b828054600181600116156101000203166002900490600052602060002090601f016020900481019282601f106200027257805160ff1916838001178555620002a2565b82800160010185558215620002a2579182015b82811115620002a257825182559160200191906001019062000285565b50620002b0929150620002b4565b5090565b6200021391905b80821115620002b05760008155600101620002bb565b61210080620002e16000396000f3fe608060405234801561001057600080fd5b50600436106101425760003560e01c80636c0360eb116100b8578063a22cb4651161007c578063a22cb4651461044e578063b88d4fde1461047c578063c87b56dd14610542578063e985e9c51461055f578063f2fde38b1461058d578063f84499f6146105b357610142565b80636c0360eb1461040857806370a0823114610410578063715018a6146104365780638da5cb5b1461043e57806395d89b411461044657610142565b806318160ddd1161010a57806318160ddd1461032e57806323b872dd146103365780632f745c591461036c57806342842e0e146103985780634f6ccce7146103ce5780636352211e146103eb57610142565b806301ffc9a71461014757806306fdde0314610182578063081812fc146101ff578063095ea7b314610238578063110bcd4514610266575b600080fd5b61016e6004803603602081101561015d57600080fd5b50356001600160e01b031916610660565b604080519115158252519081900360200190f35b61018a610683565b6040805160208082528351818301528351919283929083019185019080838360005b838110156101c45781810151838201526020016101ac565b50505050905090810190601f1680156101f15780820380516001836020036101000a031916815260200191505b509250505060405180910390f35b61021c6004803603602081101561021557600080fd5b503561071a565b604080516001600160a01b039092168252519081900360200190f35b6102646004803603604081101561024e57600080fd5b506001600160a01b03813516906020013561077c565b005b61031c6004803603604081101561027c57600080fd5b6001600160a01b0382351691908101906040810160208201356401000000008111156102a757600080fd5b8201836020820111156102b957600080fd5b803590602001918460018302840111640100000000831117156102db57600080fd5b91908080601f016020809104026020016040519081016040528093929190818152602001838380828437600092019190915250929550610857945050505050565b60408051918252519081900360200190f35b61031c6108e6565b6102646004803603606081101561034c57600080fd5b506001600160a01b038135811691602081013590911690604001356108f7565b61031c6004803603604081101561038257600080fd5b506001600160a01b03813516906020013561094e565b610264600480360360608110156103ae57600080fd5b506001600160a01b03813581169160208101359091169060400135610976565b61031c600480360360208110156103e457600080fd5b5035610991565b61021c6004803603602081101561040157600080fd5b50356109ad565b61018a6109db565b61031c6004803603602081101561042657600080fd5b50356001600160a01b0316610a3c565b610264610aa4565b61021c610b46565b61018a610b55565b6102646004803603604081101561046457600080fd5b506001600160a01b0381351690602001351515610bb6565b6102646004803603608081101561049257600080fd5b6001600160a01b038235811692602081013590911691604082013591908101906080810160608201356401000000008111156104cd57600080fd5b8201836020820111156104df57600080fd5b8035906020019184600183028401116401000000008311171561050157600080fd5b91908080601f016020809104026020016040519081016040528093929190818152602001838380828437600092019190915250929550610cbb945050505050565b61018a6004803603602081101561055857600080fd5b5035610d19565b61016e6004803603604081101561057557600080fd5b506001600160a01b0381358116916020013516610fc0565b610264600480360360208110156105a357600080fd5b50356001600160a01b0316610fee565b61031c600480360360408110156105c957600080fd5b813591908101906040810160208201356401000000008111156105eb57600080fd5b8201836020820111156105fd57600080fd5b8035906020019184600183028401116401000000008311171561061f57600080fd5b91908080601f0160208091040260200160405190810160405280939291908181526020018383808284376000920191909152509295506110e7945050505050565b6001600160e01b0319811660009081526020819052604090205460ff165b919050565b60068054604080516020601f600260001961010060018816150201909516949094049384018190048102820181019092528281526060939092909183018282801561070f5780601f106106e45761010080835404028352916020019161070f565b820191906000526020600020905b8154815290600101906020018083116106f257829003601f168201915b505050505090505b90565b600061072582611152565b6107605760405162461bcd60e51b815260040180806020018281038252602c815260200180611fa9602c913960400191505060405180910390fd5b506000908152600460205260409020546001600160a01b031690565b6000610787826109ad565b9050806001600160a01b0316836001600160a01b031614156107da5760405162461bcd60e51b81526004018080602001828103825260218152602001806120796021913960400191505060405180910390fd5b806001600160a01b03166107ec611165565b6001600160a01b0316148061080d575061080d81610808611165565b610fc0565b6108485760405162461bcd60e51b8152600401808060200182810382526038815260200180611efc6038913960400191505060405180910390fd5b6108528383611169565b505050565b6000610861611165565b600a546001600160a01b039081169116146108b1576040805162461bcd60e51b81526020600482018190526024820152600080516020612001833981519152604482015290519081900360640190fd5b6108bb600b6111d7565b60006108c7600b6111e0565b90506108d384826111e4565b6108dd818461131e565b90505b92915050565b60006108f26002611381565b905090565b610908610902611165565b8261138c565b6109435760405162461bcd60e51b815260040180806020018281038252603181526020018061209a6031913960400191505060405180910390fd5b610852838383611430565b6001600160a01b03821660009081526001602052604081206108dd908363ffffffff61158e16565b61085283838360405180602001604052806000815250610cbb565b6000806109a560028463ffffffff61159a16565b509392505050565b60006108e082604051806060016040528060298152602001611f5e602991396002919063ffffffff6115b616565b60098054604080516020601f600260001961010060018816150201909516949094049384018190048102820181019092528281526060939092909183018282801561070f5780601f106106e45761010080835404028352916020019161070f565b60006001600160a01b038216610a835760405162461bcd60e51b815260040180806020018281038252602a815260200180611f34602a913960400191505060405180910390fd5b6001600160a01b03821660009081526001602052604090206108e090611381565b610aac611165565b600a546001600160a01b03908116911614610afc576040805162461bcd60e51b81526020600482018190526024820152600080516020612001833981519152604482015290519081900360640190fd5b600a546040516000916001600160a01b0316907f8be0079c531659141344cd1fd0a4f28419497f9722a3daafe3b4186f6b6457e0908390a3600a80546001600160a01b0319169055565b600a546001600160a01b031690565b60078054604080516020601f600260001961010060018816150201909516949094049384018190048102820181019092528281526060939092909183018282801561070f5780601f106106e45761010080835404028352916020019161070f565b610bbe611165565b6001600160a01b0316826001600160a01b03161415610c24576040805162461bcd60e51b815260206004820152601960248201527f4552433732313a20617070726f766520746f2063616c6c657200000000000000604482015290519081900360640190fd5b8060056000610c31611165565b6001600160a01b03908116825260208083019390935260409182016000908120918716808252919093529120805460ff191692151592909217909155610c75611165565b60408051841515815290516001600160a01b0392909216917f17307eab39ab6107e8899845ad3d59bd9653f200f220920489ca2b5937696c319181900360200190a35050565b610ccc610cc6611165565b8361138c565b610d075760405162461bcd60e51b815260040180806020018281038252603181526020018061209a6031913960400191505060405180910390fd5b610d13848484846115cd565b50505050565b6060610d2482611152565b610d5f5760405162461bcd60e51b815260040180806020018281038252602f81526020018061204a602f913960400191505060405180910390fd5b60008281526008602090815260409182902080548351601f6002600019610100600186161502019093169290920491820184900484028101840190945280845260609392830182828015610df45780601f10610dc957610100808354040283529160200191610df4565b820191906000526020600020905b815481529060010190602001808311610dd757829003601f168201915b505060095493945050505060026000196101006001841615020190911604610e1d57905061067e565b805115610eee576009816040516020018083805460018160011615610100020316600290048015610e855780601f10610e63576101008083540402835291820191610e85565b820191906000526020600020905b815481529060010190602001808311610e71575b5050825160208401908083835b60208310610eb15780518252601f199092019160209182019101610e92565b6001836020036101000a0380198251168184511680821785525050505050509050019250505060405160208183030381529060405291505061067e565b6009610ef98461161f565b6040516020018083805460018160011615610100020316600290048015610f575780601f10610f35576101008083540402835291820191610f57565b820191906000526020600020905b815481529060010190602001808311610f43575b5050825160208401908083835b60208310610f835780518252601f199092019160209182019101610f64565b6001836020036101000a03801982511681845116808217855250505050505090500192505050604051602081830303815290604052915050919050565b6001600160a01b03918216600090815260056020908152604080832093909416825291909152205460ff1690565b610ff6611165565b600a546001600160a01b03908116911614611046576040805162461bcd60e51b81526020600482018190526024820152600080516020612001833981519152604482015290519081900360640190fd5b6001600160a01b03811661108b5760405162461bcd60e51b8152600401808060200182810382526026815260200180611e866026913960400191505060405180910390fd5b600a546040516001600160a01b038084169216907f8be0079c531659141344cd1fd0a4f28419497f9722a3daafe3b4186f6b6457e090600090a3600a80546001600160a01b0319166001600160a01b0392909216919091179055565b60006110f1611165565b600a546001600160a01b03908116911614611141576040805162461bcd60e51b81526020600482018190526024820152600080516020612001833981519152604482015290519081900360640190fd5b61114b838361131e565b5090919050565b60006108e060028363ffffffff6116fa16565b3390565b600081815260046020526040902080546001600160a01b0319166001600160a01b038416908117909155819061119e826109ad565b6001600160a01b03167f8c5be1e5ebec7d5bd14f71427d1e84f3dd0314c0f7b2291e5b200ac8c7c3b92560405160405180910390a45050565b80546001019055565b5490565b6001600160a01b03821661123f576040805162461bcd60e51b815260206004820181905260248201527f4552433732313a206d696e7420746f20746865207a65726f2061646472657373604482015290519081900360640190fd5b61124881611152565b1561129a576040805162461bcd60e51b815260206004820152601c60248201527f4552433732313a20746f6b656e20616c7265616479206d696e74656400000000604482015290519081900360640190fd5b6112a660008383610852565b6001600160a01b03821660009081526001602052604090206112ce908263ffffffff61170616565b506112e16002828463ffffffff61171216565b5060405181906001600160a01b038416906000907fddf252ad1be2c89b69c2b068fc378daa952ba7f163c4a11628f55a4df523b3ef908290a45050565b61132782611152565b6113625760405162461bcd60e51b815260040180806020018281038252602c815260200180611fd5602c913960400191505060405180910390fd5b6000828152600860209081526040909120825161085292840190611d99565b60006108e0826111e0565b600061139782611152565b6113d25760405162461bcd60e51b815260040180806020018281038252602c815260200180611ed0602c913960400191505060405180910390fd5b60006113dd836109ad565b9050806001600160a01b0316846001600160a01b031614806114185750836001600160a01b031661140d8461071a565b6001600160a01b0316145b8061142857506114288185610fc0565b949350505050565b826001600160a01b0316611443826109ad565b6001600160a01b0316146114885760405162461bcd60e51b81526004018080602001828103825260298152602001806120216029913960400191505060405180910390fd5b6001600160a01b0382166114cd5760405162461bcd60e51b8152600401808060200182810382526024815260200180611eac6024913960400191505060405180910390fd5b6114d8838383610852565b6114e3600082611169565b6001600160a01b038316600090815260016020526040902061150b908263ffffffff61172816565b506001600160a01b0382166000908152600160205260409020611534908263ffffffff61170616565b506115476002828463ffffffff61171216565b5080826001600160a01b0316846001600160a01b03167fddf252ad1be2c89b69c2b068fc378daa952ba7f163c4a11628f55a4df523b3ef60405160405180910390a4505050565b60006108dd8383611734565b60008080806115a98686611798565b9097909650945050505050565b60006115c3848484611813565b90505b9392505050565b6115d8848484611430565b6115e4848484846118dd565b610d135760405162461bcd60e51b8152600401808060200182810382526032815260200180611e546032913960400191505060405180910390fd5b60608161164457506040805180820190915260018152600360fc1b602082015261067e565b8160005b811561165c57600101600a82049150611648565b60608167ffffffffffffffff8111801561167557600080fd5b506040519080825280601f01601f1916602001820160405280156116a0576020820181803683370190505b50859350905060001982015b83156116f157600a840660300160f81b828280600190039350815181106116cf57fe5b60200101906001600160f81b031916908160001a905350600a840493506116ac565b50949350505050565b60006108dd8383611a5d565b60006108dd8383611a75565b60006115c384846001600160a01b038516611abf565b60006108dd8383611b56565b815460009082106117765760405162461bcd60e51b8152600401808060200182810382526022815260200180611e326022913960400191505060405180910390fd5b82600001828154811061178557fe5b9060005260206000200154905092915050565b8154600090819083106117dc5760405162461bcd60e51b8152600401808060200182810382526022815260200180611f876022913960400191505060405180910390fd5b60008460000184815481106117ed57fe5b906000526020600020906002020190508060000154816001015492509250509250929050565b600082815260018401602052604081205482816118ae5760405162461bcd60e51b81526004018080602001828103825283818151815260200191508051906020019080838360005b8381101561187357818101518382015260200161185b565b50505050905090810190601f1680156118a05780820380516001836020036101000a031916815260200191505b509250505060405180910390fd5b508460000160018203815481106118c157fe5b9060005260206000209060020201600101549150509392505050565b60006118f1846001600160a01b0316611c1c565b6118fd57506001611428565b6060611a23630a85bd0160e11b611912611165565b88878760405160240180856001600160a01b03166001600160a01b03168152602001846001600160a01b03166001600160a01b0316815260200183815260200180602001828103825283818151815260200191508051906020019080838360005b8381101561198b578181015183820152602001611973565b50505050905090810190601f1680156119b85780820380516001836020036101000a031916815260200191505b5095505050505050604051602081830303815290604052906001600160e01b0319166020820180516001600160e01b038381831617835250505050604051806060016040528060328152602001611e54603291396001600160a01b038816919063ffffffff611c2216565b90506000818060200190516020811015611a3c57600080fd5b50516001600160e01b031916630a85bd0160e11b1492505050949350505050565b60009081526001919091016020526040902054151590565b6000611a818383611a5d565b611ab7575081546001818101845560008481526020808220909301849055845484825282860190935260409020919091556108e0565b5060006108e0565b600082815260018401602052604081205480611b245750506040805180820182528381526020808201848152865460018181018955600089815284812095516002909302909501918255915190820155865486845281880190925292909120556115c6565b82856000016001830381548110611b3757fe5b90600052602060002090600202016001018190555060009150506115c6565b60008181526001830160205260408120548015611c125783546000198083019190810190600090879083908110611b8957fe5b9060005260206000200154905080876000018481548110611ba657fe5b600091825260208083209091019290925582815260018981019092526040902090840190558654879080611bd657fe5b600190038181906000526020600020016000905590558660010160008781526020019081526020016000206000905560019450505050506108e0565b60009150506108e0565b3b151590565b60606115c384846000856060611c3785611c1c565b611c88576040805162461bcd60e51b815260206004820152601d60248201527f416464726573733a2063616c6c20746f206e6f6e2d636f6e7472616374000000604482015290519081900360640190fd5b60006060866001600160a01b031685876040518082805190602001908083835b60208310611cc75780518252601f199092019160209182019101611ca8565b6001836020036101000a03801982511681845116808217855250505050505090500191505060006040518083038185875af1925050503d8060008114611d29576040519150601f19603f3d011682016040523d82523d6000602084013e611d2e565b606091505b50915091508115611d425791506114289050565b805115611d525780518082602001fd5b60405162461bcd60e51b815260206004820181815286516024840152865187939192839260440191908501908083836000831561187357818101518382015260200161185b565b828054600181600116156101000203166002900490600052602060002090601f016020900481019282601f10611dda57805160ff1916838001178555611e07565b82800160010185558215611e07579182015b82811115611e07578251825591602001919060010190611dec565b50611e13929150611e17565b5090565b61071791905b80821115611e135760008155600101611e1d56fe456e756d657261626c655365743a20696e646578206f7574206f6620626f756e64734552433732313a207472616e7366657220746f206e6f6e20455243373231526563656976657220696d706c656d656e7465724f776e61626c653a206e6577206f776e657220697320746865207a65726f20616464726573734552433732313a207472616e7366657220746f20746865207a65726f20616464726573734552433732313a206f70657261746f7220717565727920666f72206e6f6e6578697374656e7420746f6b656e4552433732313a20617070726f76652063616c6c6572206973206e6f74206f776e6572206e6f7220617070726f76656420666f7220616c6c4552433732313a2062616c616e636520717565727920666f7220746865207a65726f20616464726573734552433732313a206f776e657220717565727920666f72206e6f6e6578697374656e7420746f6b656e456e756d657261626c654d61703a20696e646578206f7574206f6620626f756e64734552433732313a20617070726f76656420717565727920666f72206e6f6e6578697374656e7420746f6b656e4552433732314d657461646174613a2055524920736574206f66206e6f6e6578697374656e7420746f6b656e4f776e61626c653a2063616c6c6572206973206e6f7420746865206f776e65724552433732313a207472616e73666572206f6620746f6b656e2074686174206973206e6f74206f776e4552433732314d657461646174613a2055524920717565727920666f72206e6f6e6578697374656e7420746f6b656e4552433732313a20617070726f76616c20746f2063757272656e74206f776e65724552433732313a207472616e736665722063616c6c6572206973206e6f74206f776e6572206e6f7220617070726f766564a26469706673582212205793768d8fdd34595bb483f4fe455ef2b5a70bc6a5873c1e2ad065092c5fd65264736f6c63430006070033",
  "linkReferences": {},
  "deployedLinkReferences": {}
}